:1000000080311C28FF3FFF3F7E1480310030860086
:10001000003087000B1F0D280E281A284101961E5C
:10002000122813281A288C1E162817281A288531FA
:10003000732580317E10090080311E2886314F26BD
:100040008031E000863150268031E1004730840065
:10005000003085001730863133268031A03084008F
:100060000030850020308631332680317E104001FB
:100070008231052A4001220886008701403FA40002
:10008000413FA50024088400250885001200253A78
:10009000031D4B284C285F29220886008701013068
:1000A000810741310318810ACB01CC010030D9000E
:1000B000FF30CD00FF30CE00220886008701403F90
:1000C000A900413FAA00290884002A0885000008E9
:1000D000AF0074280130A9070030AA3D7F2869309D
:1000E000AF007F28AF017F282F08643A03196F28DB
:1000F0000D3A03196F28053A03196A28722829084E
:1001000084002A0885001200643A03198828892887
:10011000BB28290884002A0885001200693A031DBB
:10012000922893285529BB282308860087010108B7
:100130008400850102308107003FA400013FA50033
:100140002408AB002508AC00890D893B8909AD0066
:10015000AE00C328230886008701010884008501BA
:1001600004308107003FAB00013FAC00023FAD000F
:10017000033FAE00C3282F08693A03199428053AB3
:100180000319AA28C3282908013EA40000302A3DEB
:10019000A5002208860087012408C03F2508C13F2A
:1001A0002030AF00AE1BD528D7280130D82800302A
:1001B000A8000130AF022F08A03E86008701003062
:1001C000F3000030F2000030F1000A30F0002E0899
:1001D000F7002D08F6002C08F5002B08F4008231FA
:1001E000852280317108FB007008FA008531B32543
:1001F00080317A08303E81000030F3000030F20098
:100200000030F1000A30F00040012E08F7002D0800
:10021000F6002C08F5002B08F40081317A2180319A
:1002200073084001AE007208AD007108AC007008A0
:10023000AB002E082D042C042B040319202921299E
:1002400026292F08031D25292629D9282F08031917
:100250002A292B294E29280803192F2930294E290C
:100260000130AF022F08A03E860087012D308100AB
:100270004E292F08A03E860087010108A400A50191
:100280002408F2002508F3002108F5002008F400F6
:1002900083316923803101304001AF0720302F06C0
:1002A000031D532954293929792940012208860040
:1002B00087010130810741310318810A7929220819
:1002C00086008701403FA400413FA5002408840028
:1002D000250885000008A600A7012608F2002708C7
:1002E000F3002108F5002008F400833169238031F0
:1002F00055290800F901F31F7E297F298C29F0096F
:10030000F109F209F309F00A0319F10A0319F20AD3
:100310000319F30A0130F900F71F8F2990299D294D
:10032000F409F509F609F709F40A0319F50A03199E
:10033000F60A0319F70A0130F9060030FD00003013
:10034000FC000030FB000030FA00730872047104F6
:1003500070040319AC29AD29EC290130F800B92942
:100360000130F035F10DF20DF30D890BB12901309B
:10037000F807F31FBC29BD29B0290130FA35FB0D60
:10038000FC0DFD0D890BBE2973087702031DD229D0
:1003900072087602031DD22971087502031DD22945
:1003A00070087402031CD529D629DF297008F402CD
:1003B0007108F53B7208F63B7308F73B7A1401307D
:1003C000F336F20CF10CF00C890BE0290130F80245
:1003D000031DEB29EC29BD2979080319F029F1291E
:1003E000FC29FA09FB09FC09FD09FA0A0319FB0AB1
:1003F0000319FC0A0319FD0A7D08F3007C08F200CA
:100400007B08F1007A08F00008008531A0258231D0
:100410002B30F0000630F1008631392682318B17FF
:100420000B1700304001C6000030C5000130C40089
:10043000F430C3004A08C2004908C1004808C0009F
:100440004708BF00F230B8008530B9008531C425B7
:1004500082318331FE238231003A0319302A312A56
:100460005F2A32304001C3070030C43DC53DC63D60
:100470004608031D462A4508031D462AE930430263
:100480000330443B031C452A462A4F2A00304001D2
:10049000C6000030C5000030C4003230C3008A30CE
:1004A0004001B8008530B9004608BD004508BC00D1
:1004B0004408BB004308BA008531C42582313F306F
:1004C000F00040014608F4004508F3004408F2003B
:1004D0004308F1008331C5238231003A0319712AA0
:1004E000722A292A6400031040011A1D03140318FC
:1004F0007A2A7D2A40011A157F2A40011A11823179
:10050000FE228231292A80311C28F901F71F892A0D
:100510008A2A972AF409F509F609F709F40A031952
:10052000F50A0319F60A0319F70A0130F900F31F57
:100530009A2A9B2AA62AF009F109F209F309F00A7E
:100540000319F10A0319F20A0319F30A7308720472
:10055000710470040319AD2AAE2AE52A0130F800AF
:10056000BA2A0130F035F10DF20DF30D890BB22AE4
:100570000130F807F31FBD2ABE2AB12A730877029B
:10058000031DCC2A72087602031DCC2A710875025D
:10059000031DCC2A70087402031CCF2AD02AD82A43
:1005A0007008F4027108F53B7208F63B7308F73BDC
:1005B0000130F336F20CF10CF00C890BD92A013022
:1005C000F802031DE42AE52ABE2A79080319E92A5C
:1005D000EA2AF52AF409F509F609F709F40A0319D4
:1005E000F50A0319F60A0319F70A7708F3007608E3
:1005F000F2007508F1007408F0000800400199123B
:1006000099139A131A1319131912542B0230E0007C
:100610004530B8008530B9008531C42582314001AC
:1006200099161916682B0330E0005C30B80085304D
:10063000B9008531C4258231400199171916682BFC
:100640000430E000E930B8008430B9008531C425B9
:10065000823140011A179917682B0530E0001730D6
:10066000B8008530B9008531C425823140011A17A0
:100670009A17682B0630E0002E30B8008530B9009C
:100680008531C4258231400119179A17682B013032
:10069000E0000030B8008530B9008531C4258231D2
:1006A000400199161917682B6008013A0319062BA7
:1006B000033A0319132B013A0319202B073A0319A4
:1006C0002D2B013A03193A2B033A0319472B062B1A
:1006D00008007408750403196E2B6F2B752B7408B2
:1006E0007504031D742B752B7A2B72088531D42564
:1006F0008331C42B740886007508870049311600C1
:1007000001040319842B852BA52B7408860075081A
:1007100087004931403FF600413FF70074088600EA
:10072000750887004231403FF800413FF9007908E1
:10073000803AFA007708803A7A02031DA12B7608E6
:1007400078020318A42BA52BC42B74088600750807
:10075000870042317408840075088500003FF60068
:10076000013FF700403F76078400413F773D850019
:1007700072088000740886007508870042310130D5
:10078000810741310318810A08007008860087013B
:10079000403FF900413FFA00423FFB00433FFC006D
:1007A000790840014702F5007A08483BF6007B08CB
:1007B000493BF7007C084A3BF80074087802031DA7
:1007C000EB2B73087702031DEB2B72087602031DD7
:1007D000EB2B71087502031CEE2BEF2BFC2B700822
:1007E000860087014708C03F4808C13F4908C23F0B
:1007F0004A08C33F0130FD2B0030080040010E0CB9
:10080000FD00FD0C7D0C013961060319082C092C33
:10081000312C5A30F0000030F4000030F30000308A
:10082000F2006430F1008331C5238331003A0319AB
:100830001A2C1B2C312C40010E0CFD00FD0C7D0CE4
:100840000139E1004A08DD004908DC004808DB0006
:100850004708DA006108031D2E2C2F2C312C0130A3
:10086000322C0030080040019801990110309A00A4
:100870003730920093012B30940037307D018C008B
:1008800096010330A0008D0197012830A1008E0150
:100890009801A20137308F00F0309900FF30A3009B
:1008A0003F3090009A010330A40015307C01C20053
:1008B00013307B01A0007D019101920193019B0106
:1008C0009C019D01A501A601A7010800B4340434D0
:1008D00000340034003400344B3406340034003427
:1008E000E334053400340034003400340034003480
:1008F0000034003400340034003400340034003458
:100900000034003400340034003400340034003447
:100910000034003400340034003400340B34063426
:10092000FF3405340034003400340034400133080F
:10093000B7003208B600A72C3108A1003008A0008B
:100940003630A2003408A30080313A2084314001BF
:1009500036088400370885001200031DB02CB12C26
:100960009C2CB001B101080048304E01920090303B
:1009700090002630910044308E008F010030F0004E
:100980000030F10086310B2684310030F000003059
:10099000F1008531FF2584314001D301D4010800E5
:1009A000F03043019D0060309C0073309F001D08B3
:1009B0004001D60043011C084001D5005130DE0043
:1009C0000630DF0041018C129616903043019E00E4
:1009D00008000D340A345B3420345D345B342D342C
:1009E0005D342E345B342B345D345B3420345D3421
:1009F0002E345B3420345D345B3420345D34003479
:100A00000D340A345B342B345D345B3420345D3474
:100A10002E345B3420345D345B342D345D342E341D
:100A20005B3420345D345B3420345D3400340D3469
:100A30000A345B3420345D345B342D345D342E3421
:100A40005B3420345D345B3420345D342E345B34CD
:100A50002B345D345B3420345D3400340D340A347F
:100A60005B3420345D345B3420345D342E345B34AD
:100A700020345D345B342D345D342E345B342B34C0
:100A80005D345B3420345D3400340D340A345B341F
:100A90002B345D345B3420345D342E345B342034AD
:100AA0005D345B3420345D342E345B3420345D346B
:100AB0005B342D345D3400340D340A345B3420341F
:100AC0005D345B3420345D342E345B342B345D3440
:100AD0005B3420345D342E345B3420345D345B343D
:100AE0002D345D3400344001560843019D0040011F
:100AF000550843019C0040015E085F040319812DE5
:100B0000822D872D5F088A005E080A008531410129
:100B10008C1208000D340A34533465347434203494
:100B200070346534723469346F3464343D34253440
:100B30006C346434203428346D34733429340034F4
:100B40008631222685318431332485318431D02485
:100B500085318431B424853186313F268531863113
:100B6000172685310800FB1BB62DB72DB82DC32DD8
:100B70007A09FC007B09FD00FC0A0319FD0A7C08C8
:100B8000FA007D08FB0008003A304001BE0000304A
:100B9000B000B1003908B3003808B2003E30B400EC
:100BA0008431962485310800F1008531E3258531B3
:100BB000003A0319DC2DDD2DD52D7108F0008631AA
:100BC0004B2685310800F0014101101FE82DE92D69
:100BD000F02D4E01911EED2DEE2DF02D0130F00087
:100BE000700808000D340A34493450344D34203430
:100BF00054344534533454340D340A3400347008BA
:100C000071040319042E052E0A2E71084001D0002C
:100C10007008CF000800700871040319102E112EFF
:100C2000162E71084001D2007008D1000800410161
:100C30000C100B140030F0000030F1008631452616
:100C400086310800603045018D008F01910105302B
:100C500093009201080001304001C7070030C83DF1
:100C6000C93DCA3D0800640080010131890B342E62
:100C7000003471084001DF007008DE000800430105
:100C80008C018D0112169216080071084001D800DF
:100C90007008D700080070084E018D00080001346C
:100CA00001340800FF3FFF3FFF3FFF3FFF3FFF3F93
:020000040001F9
:0A000E008C3FFF3F9F07FF3FFF3FBD
:00000001FF
